:020000040800F2
:10000000D00600208901000881120008791200083A
:100010007D120008C50200089512000800000000CB
:10002000000000000000000000000000891200082D
:100030008505000800000000851200088D120008E8
:10004000A3010008A3010008A3010008A301000800
:10005000A3010008A3010008A3010008A3010008F0
:10006000A3010008A3010008A3010008A3010008E0
:10007000A3010008A3010008A3010008A3010008D0
:10008000A3010008A3010008A3010008A3010008C0
:10009000A3010008A3010008A3010008A3010008B0
:1000A000A3010008A3010008A3010008A3010008A0
:1000B000A3010008A3010008A3010008A301000890
:1000C000A3010008A3010008A3010008A301000880
:1000D000A3010008A3010008A3010008A301000870
:1000E000A3010008A3010008A301000800F002F822
:1000F00000F03AF80AA090E8000C82448344AAF188
:100100000107DA4501D100F02FF8AFF2090EBAE885
:100110000F0013F0010F18BFFB1A43F0010318473B
:10012000401A0000601A0000103A24BF78C878C155
:10013000FAD8520724BF30C830C144BF04680C60ED
:10014000704700000023002400250026103A28BF35
:1001500078C1FBD8520728BF30C148BF0B60704739
:100160001FB51FBD10B510BD00F071F81146FFF7A7
:10017000F7FF01F0BFF900F08FF803B4FFF7F2FFCB
:1001800003BC00F097F80000094880470948004781
:10019000FEE7FEE7FEE7FEE7FEE7FEE7FEE7FEE737
:1001A000FEE7FEE704480549054A064B7047000094
:1001B00091120008ED000008D0000020D0060020B9
:1001C000D0020020D00200204FF0013C50F8042B58
:1001D00051F8043B9A4221D1A2EB0C03934313EA5A
:1001E000CC1317D150F8042B51F8043B9A4215D187
:1001F000A2EB0C03934313EACC130BD150F8042B5E
:1002000051F8043B9A4209D1A2EB0C03934313EA41
:10021000CC13DBD04FF00000704700BFD01A01BAFA
:10022000B1FA81F101F0180122FA01F0CB40DBB202
:10023000C0B2C01AC1F120012CFA01F3D11A9143C6
:1002400011EAC311E6D17047704770477047754691
:1002500000F02CF8AE4605006946534620F0070032
:10026000854618B020B5FFF79DFFBDE820404FF050
:1002700000064FF000074FF000084FF0000BAC46AF
:10028000ACE8C009ACE8C009ACE8C009ACE8C009FA
:1002900021F007018D46704710B50446AFF300808A
:1002A0002046BDE81040FFF768BF000000487047D7
:1002B0001000002001491820ABBEFEE72600020016
:1002C00070470000FEE70000B0B540F60044C4F2FD
:1002D000010441F65A32C0F6000220464FF4805124
:1002E00001F0F2F9282001F019FA20464FF480516C
:1002F00000F06CFA10B100250EE000BF502001F0B4
:100300000DFA20464FF4805100F060FA01250028D4
:1003100008BF4FF0FF3500BF20464FF4805100F07A
:1003200055FA0028F8D1E8B2B0BD00002DE9F04F31
:1003300081B040F60044C4F2010400BF20464FF4EF
:10034000805100F043FA0028F8D0282001F0E6F9A7
:1003500020464FF4805100F039FA814620464FF490
:10036000805100F033FA0028F8D100BF20464FF446
:10037000805100F02BFA0028F8D0282001F0CEF9A7
:1003800020464FF4805100F021FA009020464FF4AF
:10039000805100F01BFA0028F8D100BF20464FF42E
:1003A000805100F013FA0028F8D0282001F0B6F9A7
:1003B00020464FF4805100F009FA824620464FF45F
:1003C000805100F003FA0028F8D100BF20464FF416
:1003D000805100F0FBF90028F8D0282001F09EF9A8
:1003E00020464FF4805100F0F1F9834620464FF447
:1003F000805100F0EBF90028F8D100BF20464FF4FF
:10040000805100F0E3F90028F8D0282001F086F9A7
:1004100020464FF4805100F0D9F9054620464FF4AC
:10042000805100F0D3F90028F8D100BF20464FF4E6
:10043000805100F0CBF90028F8D0282001F06EF9A7
:1004400020464FF4805100F0C1F9074620464FF492
:10045000805100F0BBF90028F8D100BF20464FF4CE
:10046000805100F0B3F90028F8D0282001F056F9A7
:1004700020464FF4805100F0A9F9064620464FF47B
:10048000805100F0A3F90028F8D100BF20464FF4B6
:10049000805100F09BF90028F8D0282001F03EF9A7
:1004A00020464FF4805100F091F9804620464FF4E9
:1004B000805100F08BF90028F8D1B8F1000F18BF77
:1004C0004FF00108002E18BF0126002F6FF03F00EB
:1004D00018BF0127B9F1000F18BF4FF0010908BF7D
:1004E00040200099002908BF4FEAC910BAF1000F57
:1004F00018BF4FF0010A40EA4A10BBF1000F18BFC5
:100500004FF0010B40EA0B10002D18BF012540EA07
:10051000C50040EA870040EA460040EA0800C0B251
:1005200001B0BDE8F08F000010B540F60044C4F201
:10053000010412A220464FF4805101F0C5F8204674
:100540004FF48051002200F047F94FF4966001F01B
:10055000E5F820464FF48051012200F03DF91420C7
:1005600001F0DCF841F65A32C0F6000220464FF4A2
:100570008051BDE8104001F0A7B800BF4F5554505E
:100580005554000070470000B0B5044600F02AF949
:10059000054640F20000C2F200000078611C18BF5E
:1005A000044400BF00F01EF9401BA042FAD3B0BDC6
:1005B0002DE9F04F82B00E68002E00F0038141F269
:1005C0000042C4F20102042340F2004E904208BFF0
:1005D00003234FF6FF7CC4F2010E00930024012395
:1005E000C1F2100C4FF0000A4FF0000949E000BFC3
:1005F000012704F00C030F229A402BEA020207FAAB
:1006000003F34FEA9A051A4346F82520D1F804B0BF
:1006100040F20C455FEACB22DEF8082054BF22EA04
:10062000080242EA0802C4F20105CEF808202A684E
:100630005FEA8B2354BF22EA080242EA08022A60DA
:100640005FEA8B33DEF8042054BF22EA080242EA54
:1006500008025FEACB33CEF80420DEF800204FF02A
:10066000010354BF22EA080242EA0802CEF8002041
:100670000E680AF1010A36FA0AF204F1040400F0E5
:10068000A18003FA0AF816EA080FF1D04E68664511
:1006900012DC122E56D8DFE806F0350B45495555C9
:1006A00055555555555555555555554D510000BF46
:1006B000D1F80C9046E000BF4FF6FF72C1F2210264
:1006C00096420FDC0022C1F2110296421AD000229B
:1006D000C1F21202964215D00022C1F221029642C6
:1006E00010D02FE00022C1F2220296420AD000224E
:1006F000C1F23102964205D00022C1F23202964286
:1007000020D100BF8A684AB1012A14BFC0F8148002
:10071000C0F810804FF0080914E000BF4FF0040942
:1007200010E000BFCA6802F108090BE04FF00009B1
:1007300008E000BFCA6802F1040903E0CA6802F1D8
:100740000C0900BF22460646BAF1080F24BF203A22
:10075000043637680F25954027EA050509FA02F2A5
:100760002A433260CA79D2067FF582AF41F218037C
:10077000C4F202031A68AEF57E7642F001021A60F6
:100780001A6802F001020192019A2AF0030256F857
:1007900002B040F60002C4F20102904210D040F6CE
:1007A0000042C4F2010290423FF422AF41F2000243
:1007B000C4F20102009F904208BF022719E700BF60
:1007C000002716E702B0BDE8F08F000080680840FF
:1007D00018BF012070470000002A08BF090401610A
:1007E0007047000040F2CC00C2F200000068704781
:1007F00040F2000040F2CC01C2F20000C2F200015F
:1008000000780A68104408607047000080B542F222
:100810000000C4F20200016841F0100101600320F1
:1008200000F07AF80F2000F005F800F027F800201B
:1008300080BD000070B540F20006C2F2000640F232
:1008400008013278C2F200014FF47A730968B3FBF1
:10085000F2F20446B1FBF2F1084600F027FB0F2C40
:100860004FF0010508D838B94FF0FF30214600227B
:10087000002500F025F87460284670BD82B041F272
:100880001800C4F202000168022241F00101016077
:10089000016801F0010101910199416841F0805125
:1008A0004160406800F08050009000980420C4F23D
:1008B0000100016862F31A61016002B07047000034
:1008C00010B54EF60C5CCEF2000CDCF80030C3F331
:1008D000022E8EF00704042C28BF0424BEF103036B
:1008E0004FF0FF3E0EFA04F438BF0023A1439940B5
:1008F0000EFA03F39A43114300F00F0200F1604334
:100900000901043A03F564436244002848BF02F138
:100910000C03197010BD00004EF60C51CEF2000110
:100920000A684FF6FF031A4060F30A2242F0806023
:1009300040F0FD70086070472DE9F04381B0002859
:1009400000F0858042F20008C4F202080446D8F89C
:1009500000000D4600F0070088420CD2D8F80000D5
:1009600020F007002843C8F80000D8F8000000F085
:100970000700A8426BD1206841F204098107C4F244
:10098000020917D5410705D5D9F8001041F4E061F7
:10099000C9F80010010705D5D9F8001041F46051DD
:1009A000C9F80010D9F80010A26821F0F001114335
:1009B000C9F80010C00741D1D8F8000000F00700C6
:1009C000A8420CD9D8F8000020F007002843C8F846
:1009D0000000D8F8000000F00700A84237D12068D6
:1009E000410707D5D9F80010E26821F4E06111430E
:1009F000C9F80010000708D5D9F80000216920F4D3
:100A0000605040EAC100C9F80000D9F8002002F0A7
:100A10000C00082841F20020C0F27A0050D141F6C3
:100A20004A33C2F38341C0F60003595CD2033BD47E
:100A300040F60010C0F23D00484341E060680228E3
:100A40000AD001282AD159F8041C890308D40120AE
:100A500001B0BDE8F08300BF59F8041C8901F6D548
:100A6000D9F8001021F003010843C9F80000FFF78E
:100A7000B9FE064641F28837D9F80000616800F0F7
:100A80000C00B0EB810F97D0FFF7ACFE801BB84293
:100A9000F2D9032001B0BDE8F08300BF59F8041C6F
:100AA0008907D4D5DCE700BFD9F8002041F64833E8
:100AB000C2F34042C0F600039A5C4843B0FBF2F038
:100AC000D9F8001041F63832C1F30311C0F6000224
:100AD000515C40F2080220FA01F140F20400C2F237
:100AE00000000068C2F200021160FFF7A3FE0020C0
:100AF00001B0BDE8F08300002DE9F04182B000288C
:100B000068D00446007841F20006C007C4F202062D
:100B100025D0706800F00C0004281BD0706800F02D
:100B20000C00082802D17068C00313D46068002844
:100B300000F06881B0F5A02F00F07C81B0F5803F17
:100B400000F07C81306820F480303060306820F420
:100B5000802076E13068800301D56068D0B32078CA
:100B6000800718D5706810F00C0F07D0706800F07F
:100B70000C0008286ED17068C0036BD43068800701
:100B800002D52069012825D13068616920F0F8007C
:100B900040EAC1003060207800071FD42078400769
:100BA00032D4E56995B1706800F00C00082840F077
:100BB0008F80012D0ED07068216A00F480328A4245
:100BC00008D1616A00F47010884203D1002002B09D
:100BD000BDE8F081012002B0BDE8F081A0690028E5
:100BE00062D00020C4F242200121C0F88014FFF737
:100BF000F9FD0546706A800700F18C80FFF7F2FD71
:100C0000401B0228F6D92AE1F06910F0805808D17B
:100C1000F06940F08050F061F06900F08050009081
:100C2000009847F20007C4F200073868C00529D4CD
:100C3000386840F480703860FFF7D4FD054600BF87
:100C40003868C0051ED4FFF7CDFD401B6428F7D9D6
:100C500005E100BF2069002840F20000C4F24220F4
:100C600000F0828001210160FFF7BCFD054600BF56
:100C7000306880073FF588AFFFF7B4FD401B0228BE
:100C8000F6D9ECE0E068002800F08080052800F04C
:100C90009780012800F09880306A20F001003062CF
:100CA000306A20F0040092E00020C4F242200021CB
:100CB000C0F88014FFF796FD054600BF706A8007F4
:100CC0007FF56CAFFFF78EFD401B0228F6D9C6E01A
:100CD0000027C4F2422700203866FFF783FD022D6B
:100CE00005460BD13068800140F1BE80FFF77AFDE8
:100CF000401B02284FF00300F4D968E730688001F8
:100D00007FF564AFFFF76EFD401B02284FF0030034
:100D1000F4D95CE740F20800C2F20000006844F633
:100D2000D351C1F26201A0FB0101480A019000BF4A
:100D300000BF0198411E002801913FF42FAF00BF72
:100D40000198411E002801913FF428AF00BF01988F
:100D5000411E002801913FF421AF00BF0198411EC0
:100D600000280191E4D119E700210160FFF73AFD65
:100D7000054600BF306880077FF50DAFFFF732FDF5
:100D8000401B02284FF00300F4D920E7306A20F01E
:100D900001003062306A20F004003062FFF722FD6B
:100DA000054641F2883700BF306A800720D5FFF73B
:100DB00019FD401BB8424FF00300F5D907E700BF0B
:100DC000306A40F004003062306A40F00100306266
:100DD000FFF708FD054641F2883700BF306A8007FB
:100DE00006D4FFF7FFFC401BB842F7D937E000BF3D
:100DF000B8F1000F7FF4D5AEF06920F08050F061BB
:100E0000CFE600BF306820F480303060306820F4D6
:100E100080203060FFF7E6FC054600BF30688003A5
:100E20007FF59DAEFFF7DEFC401B64284FF003000A
:100E3000F4D9CCE6306840F480203060306840F46B
:100E400080303060FFF7CEFC054600BF306880037D
:100E50003FF585AEFFF7C6FC401B6428F6D903209A
:100E600002B0BDE8F08100BF206AB0F5803F05D137
:100E70007168A26821F40031114371607168626A7F
:100E800021F4741111430843706001203866FFF7A4
:100E9000A9FC0446306880013FF598AEFFF7A2FC3C
:100EA000001B02284FF00300F4D990E6411E0020F9
:100EB000B0EB116F1CBF012070474EF21002CEF252
:100EC000000251604EF62351CEF20001F0230B7068
:100ED000072190601160704710B590F83C20012AFE
:100EE0004FF0020233D080F83D200268D2F804E0CF
:100EF000D2F808C00C682EF07003234340F2FF7450
:100F0000C4F20004A24253600ADCB2F1804F13D055
:100F100040F20043C4F200039A420DD011E000BF3A
:100F200042F60043C4F201039A4205D040F60003A2
:100F3000C4F200039A4204D149682CF0800319439B
:100F400091600121002280F83D1080F83C2010467D
:100F500010BD0000002804BF0120704710B50446F2
:100F600090F83D0028B9002084F83C00204600F0AD
:100F700067F8022084F83D00206840F2FF730268A1
:100F8000C4F2000342F6004C9842C4F2010C15DC96
:100F9000B0F1804F1AD040F20041C4F20001884203
:100FA00014D0984218DCB0F1804F1DD040F20041BF
:100FB000C4F20001884217D01AE000BF604505D096
:100FC00040F60001C4F200018842EAD1A16822F093
:100FD00070020A439842E6DD604505D040F6000104
:100FE000C4F20001884203D1216922F440720A430D
:100FF000A36922F08001D4F804E0E2681943604557
:101000000160C262C0F828E002D16169CCF83010FA
:1010100001214161002084F8461084F83E1084F8D4
:101020003F1084F8401084F8411084F8421084F88E
:10103000431084F8441084F8451084F83D1010BD26
:1010400081B0006840F60001C4F20001884201D07E
:1010500001B0704741F21C00C4F20200016841F087
:1010600004010160006800F004000090009801B0E5
:101070007047000090F83D1001291CBF0120704707
:10108000022180F83D10006840F2FF71C4F20001B7
:10109000884209DCB0F1804F12D040F20041C4F226
:1010A000000188420CD012E042F60041C4F2010176
:1010B000884205D040F60001C4F20001884206D102
:1010C000816801F00701062904BF0020704701680C
:1010D00041F00101016000207047000080B590F8E8
:1010E0003C20012A4FF0020200F0C28080F83D202F
:1010F000D0F800C04FF67772DCF8083023EA02021D
:10110000CCF808200B684F2B28DC1F2B44DD202B4C
:1011100045D0302B43D0402B40F0AC80D1F804E0D8
:10112000C968DCF82030DCF8202022F00102CCF87D
:101130002020DCF8182022F0F00242EA011123F00E
:101140000A0242EA0E02CCF81810CCF82020DCF893
:10115000081041F0470121F0300180E06F2B27DDBE
:10116000B3F5005F48D0B3F5805F7AD0702B40F0C4
:101170008180D1E901E3C968DCF8082043EA0E0365
:1011800022F47F4243EA01211143CCF80810DCF835
:10119000081041F0770162E00BB1102B6AD1DCF846
:1011A000081021F07001194341F0070157E000BF1A
:1011B000502B35D0602B5DD1D1F804E0C968DCF844
:1011C0002030DCF8202022F01002CCF82020DCF8BF
:1011D000182022F4704242EA013123F0A00242EAD0
:1011E0000E12CCF81810CCF82020DCF8081041F0D2
:1011F000670121F0100132E0D1E901E3C968DCF8B0
:10120000082043EA0E0322F47F4243EA01211143FE
:10121000CCF80810DCF8081041F480411FE000BF52
:10122000D1F804E0C968DCF82030DCF8202022F096
:101230000102CCF82020DCF8182022F0F00242EA6B
:10124000011123F00A0242EA0E02CCF81810CCF881
:101250002020DCF8081041F0570121F02001CCF8E3
:1012600008100022012180F83D10002180F83C1078
:10127000104680BD0122F5E7FEE70000FEE7000012
:10128000FEE700007047000070470000FFF7B0BAAB
:1012900070470000FEE70000F0B581B0013840F66D
:1012A00000040D460328C4F2010410D85FA131F8F0
:1012B000101060A204F5806732F8106038460022F2
:1012C000FFF78AFA384631460122FFF785FA0B2DDF
:1012D00000F2AA80DFE805F0061422303E4C5A687E
:1012E000767E8C9A20467E210122FFF775FA2046F1
:1012F0008021002201B0BDE8F040FFF76DBA00BFC9
:10130000204642210122FFF767FA2046BC21002235
:1013100001B0BDE8F040FFF75FBA00BF2046BA2138
:101320000122FFF759FA20464421002201B0BDE80E
:10133000F040FFF751BA00BF2046EA210122FFF733
:101340004BFA20461421002201B0BDE8F040FFF71F
:1013500043BA00BF2046C6210122FFF73DFA2046CE
:101360003821002201B0BDE8F040FFF735BA00BFD8
:101370002046EC210122FFF72FFA204612210022FD
:1013800001B0BDE8F040FFF727BA00BF2046FC21BE
:101390000122FFF721FA20460221002201B0BDE818
:1013A000F040FFF719BA00BF20464A210122FFF79B
:1013B00013FA2046B421002201B0BDE8F040FFF747
:1013C0000BBA00BF2046FE21012201B0BDE8F0406B
:1013D000FFF702BA2046EE210122FFF7FDF9204671
:1013E0001021002201B0BDE8F040FFF7F5B900BFC1
:1013F00020468E210122FFF7EFF9204670210022BE
:1014000001B0BDE8F040FFF7E7B900BF20463C213E
:101410000122FFF7E1F92046C221002201B0BDE818
:10142000F040FFF7D9B900BF01B0F0BD03040308D5
:10143000010C020C0008000402000100B0B546F2E5
:101440006761C6F2666180FB01239A1002EBD372DA
:1014500082FB0113991001EBD37101EB8101A2EB27
:10146000410102EB8202A0EB42040120FFF714FFCE
:101470000120FFF789F802202146FFF70DFF012028
:10148000FFF782F840F60004C4F2010404F5806519
:10149000284640F601410022FFF79EF92846022126
:1014A0000122FFF799F920468E210122FFF794F9D6
:1014B000204670210022FFF78FF90120FFF764F822
:1014C000284640F602410022FFF786F9284601210E
:1014D0000122FFF781F920463C210122FFF77CF928
:1014E0002046C2210022FFF777F90120BDE8B04075
:1014F000FFF74AB890B0FFF789F900240120CDE941
:101500000B44CDE9094406900A904FF4E0104FF4E3
:10151000803102250F9006A8CDE90714CDE90D51C1
:10152000FFF7EAFA20B1EFF3108072B6FEE700BFD2
:101530000F20CDE900054FF48060CDE90304684633
:1015400002210294FFF7F8F920B1EFF3108072B690
:10155000FEE700BF41F21800C4F20200016840F645
:10156000000941F0200101600168C4F2010901F0A5
:101570002001069106990168002241F004010160F2
:101580000168FE2601F00401069106990168002712
:1015900041F0080101600068FE2100F0080006909B
:1015A00006984846FFF718F909F58065284641F680
:1015B0000341002241F60348FFF70EF9069606AEF6
:1015C0004FF0010A022448463146CDE907A70994A5
:1015D000FEF7EEFF28463146CDE9068ACDE90874CC
:1015E000FEF7E6FF40F27006C2F20006A9F5803170
:1015F000304640F8141F47214FF6FE720997CDE997
:101600000777CDE90077C0E90117C0E903278761B3
:10161000FFF7A0FC20B1EFF3108072B6FEE700BF29
:101620004FF4805006F11404069006A92046FFF7F7
:1016300055FD28B1EFF3108072B600BFFEE700BF82
:1016400069462046FFF748FC20B1EFF3108072B6E0
:10165000FEE700BF2046FFF70DFD00244CF6CD4706
:10166000C4F22404FEF760FFFEF72EFE3070FEF792
:101670005DFE7070FEF75AFEB070FEF757FEF07018
:10168000FEF754FE3071FEF751FEB6F803103081BC
:1016900008BA010CB6F80100718100BA7943000C58
:1016A000CD0CB081F58000F0DBF90022234600F07C
:1016B0007DF800F049F830612846FFF7BFFE0A20A8
:1016C000FEF762FFCEE70000B0B584B0044600200C
:1016D000CDE90200CDE900100CA110461546FEF739
:1016E00073FD48B10BA12846FEF76EFD002804BF2C
:1016F0000120029004E000BF01200190022003902D
:1017000069462046FEF754FF04B0B0BD4F55545013
:1017100055540000494E50555400000040F28401D9
:10172000C2F20001096800224A6206E04A6A824267
:1017300028BF70474A6A824205D24A6A824202D270
:101740004A6A8242F2D3704721F0004201F000431E
:10175000A2F16052B2F5801F28BFD2F17F6C0BD985
:101760005FEA001C43EAC20242EB507018BF7047A8
:1017700028BF20F001007047B2F5801FBCBF18469B
:1017800070474FEA410C1CF5001F02D2084600F0DA
:10179000CEB970B500F077F900000089FFF7F6BF09
:1017A0004FF00040A0F58000704700002DE9C041D7
:1017B00030B4DFF8A4C23CEA111418BF3CEA131499
:1017C00000F0ED801CEA111481EA030544EAD574A7
:1017D00018BF1CEA131500F0C880A4EB050404F13F
:1017E0007F7404F500344FF0004545EAC12145EA15
:1017F000C32341EA505143EA52534FEAC0204FEA13
:10180000C222994208BF904200F09D804FEA1365C2
:101810000FF24416765D4FEA134506FB05F7C7F154
:10182000807706FB07F74FEAD737A7FB03687642B6
:10183000A7FB06CEC8F5803838BFA8F1010807FB22
:1018400008E6A6FB028C4FF0000EE6FB03CEDCF1AF
:10185000000CCEF1004E38BFAEF1010EA6FB0C58C5
:101860004FF00007E6FB0E87A1FB08C6A0FB07CEE2
:1018700016EB0E064FF0000545F10005E1FB07658C
:1018800015F1E04E7EBFA4F580345FEA46066D4157
:1018900016F1800745F100054FEA172747EA05676B
:1018A0004FEA15254FEA0666A6F1DE46B6F1805FDF
:1018B00020D9384605EBC47124F0010C01EB0C1162
:1018C000BCF1FE6F02D8F0BCBDE8008124425CBFD1
:1018D00001F5801E9EEAC47F02D4F0BCBDE8008101
:1018E000244200F13980A1F1C041F0BCBDE80041C3
:1018F00000F017B94FEAD02040EA41504FEAD12119
:101900004FEAD22242EA43524FEAD323A7FB028690
:1019100007FB036605FB02661EEA0E0F58BFA6EB27
:101920000056B6EB00564FEA520E4EEAC37E18EB55
:101930000E0E56EB530EBCD518EB02085E417F1C11
:1019400055F10005B5E74FF480154FF000074FF053
:1019500000064FF00008ACE701F1C04101F0004182
:101960004FF00000F0BCBDE800810CEA131511EA4D
:101970000C1F00D00CE013EA0C1F00F026804FF083
:10198000000081EA030101F00041F0BCBDE80081E4
:10199000F0BCBDE8004181EA030100F0C2B8F0BC30
:1019A000BDE8004170B500F06EF800BF097EFC3E56
:1019B00000F007B84FF0000081EA030101F0004198
:1019C000704781EA030100F0ACB8F0BCBDE800410B
:1019D00022494FF000007047FFFDFBF9F7F5F4F2E4
:1019E000F0EEEDEBE9E8E6E4E3E1E0DEDDDBDAD8BA
:1019F000D7D5D4D3D1D0CFCDCCCBCAC8C7C6C5C418
:101A0000C2C1C0BFBEBDBCBBBAB9B8B7B6B5B4B32E
:101A1000B2B1B0AFAEADACABAAA9A8A8A7A6A5A419
:101A2000A3A3A2A1A09F9F9E9D9C9C9B9A999998DD
:101A30009797969595949393929191908F8F8E8E80
:101A40008D8C8C8B8B8A898988888787868585840D
:101A500084838382828181800000FF070000F87FF9
:101A6000B0FA80F310FA03F10AD0C3F11D0303F5B5
:101A700080634FEA03524FEA415002EBD121704795
:101A80004FF0000070470EF1020E2EF0030E5EF8CC
:101A9000046B364205D4012A43EB030515F5001FFC
:101AA00012D8012841EB010C1CF5001F0CD80ED1F7
:101AB0004FEAD17C0CEB4C0C0CF1020C15F5001F1D
:101AC00008BF4CEBD37C04E04FF0080C01E04FEA78
:101AD000D37C0CEB4C0526FA05F606F00706B6F1AA
:101AE000040C06D20EEB860CBDE870404CF0010CE5
:101AF0006047DFE80CF0090B02024FF00041A1F54E
:101B000000214FF0000070BD19461046012851EB2E
:101B1000010418BFD4F5001484BF002001F0004177
:101B200070BD0808A0F500114FEA31017047FF2190
:101B300041EAD050C00570470000000000000000DE
:101B4000010203040607080901020203040506074F
:101B500008090A0B0C0D0E0F1010494E5055540079
:101B6000801B000800000020100000002801000871
:101B7000901B000810000020C0060000440100086F
:101B800001000000100000000024F400000000002C
:04000005080000ED02
:00000001FF
